:100000000C9407010C943F010C943F010C943F01A8
:100010000C943F010C943F010C943F010C943F0160
:100020000C943F010C943F010C94D11A0C94A41B26
:100030000C94E1150C943F010C943F010C943F018A
:100040000C943F010C943F010C943F010C943F0130
:100050000C943F010C9479160C943F010C943F01D1
:100060000C943F010C943F010C943F010C943F0110
:100070000C943F010C943F010C943F010C943F0100
:100080000C943F010C943F010C943F010C943F01F0
:100090000C943F010C943F010C943F010C943F01E0
:1000A0000C943F010C943F010C943F015300540009
:1000B000550056005F006000610057005C005D0065
:1000C0005E00000059005A005B005800620000000A
:1000D000630000001603660066005F006E00750096
:1000E0006D007000610064003100000010035300D7
:1000F000650062006F007200610068000000040388
:10010000090409023B00020100A0FA0904000001F1
:1001100003010100092111010001224400070581AA
:100120000308000109040100010300000009211176
:10013000010001227B00070582032000011201005B
:100140000200000008EC03F42F0001010200010589
:10015000010902A10185020901A10005091901296E
:10016000081500250195087501810205010930096E
:10017000311581257F95027508810609381581257D
:100180007F950175088106050C0A38021581257FC7
:10019000950175088106C0C005010980A10185038C
:1001A00019012AB700150126B700950175108100C5
:1001B000C0050C0901A101850419012AA00215013D
:1001C00026A002950175108100C005010906A10154
:1001D000050719E029E71500250195087501810239
:1001E0009501750881010507190029FF150026FFF3
:1001F00000950675088100050819012905150025D7
:1002000001950575019102950175039101C01124B5
:100210001FBECFEFDAE0DEBFCDBF04B603FE18C0CD
:1002200080914B0290914C02A0914D02B0914E02F0
:100230008730904BA740B04B59F410924B0210926C
:100240004C0210924D0210924E02E0E0F8E3099544
:1002500011E0A0E0B1E0EEEDFCE302C005900D92EC
:10026000AA38B107D9F722E0AAE8B1E001C01D928F
:10027000AB34B207E1F70E9430100C941C1E0C94B2
:100280000000811111C0653078F4443068F484E0D6
:10029000689FF0011124E40FF11DEE0FFF1FE455DC
:1002A000FF4F85919491089581E090E008950E9418
:1002B0004101089581E008950E945A01089581E066
:1002C00008950E945A0108950E94610108950895B9
:1002D0000E9467010895A6E0B0E0E1E7F1E00C9428
:1002E000781D49835A839E833091910189819A8137
:1002F00031111AC03E81332399F0222389F00E94E4
:100300001107182F682F89819A810E94EE06698152
:100310007A81812F0E94BF0D2696E3E00C94941DF4
:100320000E94FF06182FF3CF0E94110769817A817E
:10033000F1CFFC01262F408151816281738184813C
:1003400095810E946B010895CF93DF93D82FC92F19
:1003500061E00E9499016D2F7C2F0E945C01DF916A
:10036000CF910895CF93DF93D82FC92F60E00E94DB
:1003700099016D2F7C2F0E946801DF91CF91089524
:1003800081E008950E94C0010895CF93C82F0E9474
:10039000C0058C2F0E94C2012FEF84E39CE0215006
:1003A00080409040E1F700C00000CF91089581E0C7
:1003B0000E94C5010E949D16089580E00E94C5011B
:1003C0000E94C11608950F931F93CF93DF938C0162
:1003D00061E00E949901EC01B8010E946401882348
:1003E000B1F1B801CE010E944E14882381F1B80109
:1003F000CE010E946D10882351F1B801CE010E94F8
:100400004210882321F1F8018581882381F0CA35C3
:10041000FCE7DF0739F178F4C130ECE7DE07F9F0EB
:10042000C330FCE7DF07C9F0C115DC4771F0C80134
:100430000E945F010DC0CB35ECE7DE07B1F0CC3593
:10044000DC47A9F70E94130BF2CF0E94D70180E08E
:10045000DF91CF911F910F9108950E94250B0E946B
:10046000DD01F5CF0E941D0BE2CF0E94210BDFCFF3
:100470000E94BE150E945F0208950E9463020E94BE
:10048000C3150895089581E008950895CF93DF93EB
:10049000D82F0E944302C82F882319F08D2F0E9465
:1004A00045028C2FDF91CF9108950895CF93C82FE7
:1004B0000E9442028C2F0E944602CF91089580E054
:1004C0000E94560208950E9494140E9456020895B4
:1004D000CF930E949414C82F80918C018C1779F0CF
:1004E000C0938C010E944D1660938D0170938E0114
:1004F00080938F01909390018C2F0E945602CF9190
:100500000895ADE0B0E0E7E8F2E00C94791D48878B
:1005100059876A877B878C879D8791110E94500A33
:100520001F8286E0FE013896DE01119601900D9241
:100530008A95E1F78D8181110DC029813A814B8126
:100540005C816D817E818F810E9496092D96E2E00B
:100550000C94951DCE0101960E94A4018111EDCF4E
:10056000F5CFFC018481813021F4808191810E944A
:1005700043070895662329F00E94DB110E94B112FF
:1005800008950E943912FACFCF93C82F882399F08B
:100590008CEF8C0F813A88F48C2F0E941B158823D6
:1005A00029F08C2F0E9460150E94C10A8C2F0E9496
:1005B00058150E94C10ACF91089580E28C0F8830AF
:1005C00048F4C77081E001C0880FCA95EAF70E941D
:1005D000310AEFCF8BE58C0F833038F42C2F245267
:1005E000330BC9010E94BB14E6CFE8E5EC0FEB31F9
:1005F00050F4F0E0EE0FFF1FEB5EFE4F8081918123
:100600000E94E114D8CF83E38C0F8331A0F661E020
:100610008C2F0E94BA02CFCF882381F19CEF980FD4
:10062000913A28F40E9460150E94C10A089590E250
:10063000980F983050F4877091E001C0990F8A9517
:10064000EAF7892F0E94370AEFCF9BE5980F933086
:1006500028F480E090E00E94BB14089598E5980F7C
:100660009B3128F480E090E00E94E114089593E328
:10067000980F933118F460E00E94BA0208951F9316
:10068000CF93DF93182FEB010E94C402209739F417
:10069000812F0E940C03DF91CF911F9108958FE964
:1006A0009FE00197F1F700C000002197EFCF60E0D5
:1006B00070E0893311F460E570E00E943F03089513
:1006C000882321F00E94310A0E94C10A08958823DC
:1006D00021F00E94370A0E94C10A0895A0E0B0E00C
:1006E000E4E7F3E00C94731D6C01D62FC72FFC01D7
:1006F0001581068102950F700E94260AE82E882334
:10070000F9F0E12E1123E1F08C2F807F803461F02D
:1007100080E28D0F8830F0F08C2F807E803221F4C3
:10072000D230C0F00023B1F080912F0282FF12C0BE
:1007300082E00E94E60A0E94260A91E0E82EE9265D
:10074000EC2FE295EF70C03CB0F5F0E0E25EF14EC8
:100750000C94631DE12CF4CF0C2F0F70C03110F0FE
:100760000295007F112399F0002359F080E28D0F4C
:10077000883010F0D11107C0802F0E94310A0E94EA
:10078000C10A8D2F51C0802F0E94420AF8CF8D2FB1
:100790000E940C03002379F080E28D0F883010F066
:1007A000D11104C0802F0E94370A03C0802F0E94FD
:1007B000480A0E94C10AEE2089F00E94220A80FDA8
:1007C0000DC0F60115820E941C0A0E944B06C6014C
:1007D0000E9487050E941C0A0E945B06CDB7DEB707
:1007E000E8E00C948F1DFC2FFF70FF2EC07FC032FD
:1007F00019F0F29480EFF822DD2341F0D130D1F1ED
:10080000112309F444C00023F1F0BBCF80912F02E3
:1008100082FD15C0112359F0FF2029F08F2D0E9471
:10082000310A0E94C10A80E00E94C402C4CF80E065
:100830000E940C03FF2009F4BECF8F2DB4CF1123EB
:1008400069F0011104C08F2D0E946003B4CF013004
:1008500009F0B1CF8F2D0E94680AADCF0111ABCF47
:100860008F2D0E9467038F2D0E94740A8F2D0E9486
:10087000570AA1CF112321F0063008F09CCFE3CF17
:10088000053008F098CF8F2D0E94670394CF002386
:10089000D1F3D93349F42FEF87EE93E02150804014
:1008A0009040E1F700C000008D2F0E940C0383CF21
:1008B0008C2F869586958370882369F0813009F0A6
:1008C0007ACF8D2F9C2F9370111102C080E090E0A1
:1008D0000E94E11470CF8D2F9C2F9370111102C0D4
:1008E00080E090E00E94BB1466CF612F8D2F0E94A4
:1008F000BA0261CF8C2F8370811139C0111129C0C8
:100900004D2F429546954770440F440F2D2F2F7061
:1009100030E0042E02C0220F331F0A94E2F780E079
:1009200090E0D4FF09C08FE090E002C0880F991FCB
:100930004A95E2F780959095C695C695C370822B2F
:10094000932BC23071F0C33079F0C13039F00E947E
:100950001B060E9494140E9456022DCF0E9412067C
:10096000F8CF0E942406F5CF0E940F06F2CF112384
:1009700061F1C0FFEECF4D2F429546954770440F71
:10098000440F2D2F2F7030E0042E02C0220F331F92
:100990000A94E2F780E090E0D4FF09C08FE090E095
:1009A00002C0880F991F4A95E2F780959095C695E9
:1009B000C695C370822B932BC23069F0C33071F09F
:1009C000C13031F00E948606C4CF823010F2D3CFFE
:1009D0000E947D06BECF0E948F06BBCF0E943306C9
:1009E000B8CFCF70112339F08C2F0E944B068D2F7A
:1009F0000E946003AECF8D2F0E9467038C2F0E9450
:100A00005B06A7CFD23F31F170F4D03FB9F0D13FB0
:100A1000B1F1112309F451C0002309F44BC08D2F0B
:100A20000E94C40296CFD33FE1F0D43F21F11111CF
:100A3000F3CF011150C08C2F8F71E1CF112341F002
:100A4000053008F086CF8C2F8F710E946D0681CF04
:100A50000530F7CF8C2F8F711111D1CF0E944B062B
:100A600078CF112329F08C2F8F710E943F0671CF10
:100A70000E943A066ECF80912F0282FD06C08C2F15
:100A80008F71112309F4BBCFE9CF112349F0CF7146
:100A90008C2F0E944B0663E08C2F0E94C80A59CF0E
:100AA00081E00E94E60A023008F453CF82E00E94FF
:100AB000E60A4FCF8C2F8F71D1CF002309F4BBCF23
:100AC000D93349F4EFEFF7EE23E0E150F040204056
:100AD000E1F700C000008D2F0E940C033ACF0F9366
:100AE0001F93CF93DF93EC01688179818D810E9400
:100AF00050078C010E9498060E940E06B801CE0194
:100B00000E946E03DF91CF911F910F910895CF93B3
:100B1000DF93EC018C81882399F0CE010E94E301E0
:100B2000811111C00E94260A882351F08D818823EB
:100B300039F080912F0282FF03C082E00E94E60A12
:100B4000DF91CF910895CE010E946F05CE010E94E2
:100B5000B201F6CF80E090E00E94BB1480E090E00C
:100B60000E94E1140E94500A0E94C10A0E94CE1203
:100B70000E94B11208950E9468150E94AA05089566
:100B80000E943F0A0E94BB050895282F92959F70EE
:100B9000963091F060F4925F9F70923030F481E073
:100BA000203F79F030F4283E30F080E008959A5FDD
:100BB000F3CF243FD1F7089581E0283EE0F3213FB1
:100BC000F9CF0895FC018481882339F080819181D7
:100BD0000E9443070E94C505089580E00895A6E09D
:100BE000B0E0E5EFF5E00C94791D2696E2E00C9478
:100BF000951DA7E0B0E0EFEFF5E00C94791D279686
:100C0000E2E00C94951D08950E94030608950E9449
:100C100004069093A1018093A001089508950E9475
:100C2000070608952091A0013091A101822B932BFA
:100C30000E94070608952091A0013091A10182230E
:100C400093230E94070608952091A0013091A101ED
:100C5000822793270E94070608950E94030608959D
:100C60000E942D0608950E94300690939F01809364
:100C70009E01089580E090E00E943306089521E0EF
:100C800030E0A90102C0440F551F8A95E2F7CA015E
:100C90000E943306089521E030E002C0220F331F86
:100CA0008A95E2F780919E0190919F01822B932B70
:100CB0000E943306089521E030E002C0220F331F66
:100CC0008A95E2F72095309580919E0190919F0141
:100CD000822393230E943306089521E030E002C06E
:100CE000220F331F8A95E2F780919E0190919F0118
:100CF000822793270E943306089520919E01309108
:100D00009F01822B932B0E943306089520919E0110
:100D100030919F01822393230E94330608952091EE
:100D20009E0130919F01822793270E9433060895E8
:100D300008959B01677091E001C0990F6A95EAF7E9
:100D400063E0369527956A95E1F7220F331F220F4E
:100D5000331FFA01E20FF31F40E050E0682F70E00C
:100D60008191DF0111979B01042E02C036952795D2
:100D70000A94E2F7217021952827292328272C930C
:100D80004F5F5F4F4430510559F708959C01982FEC
:100D9000977083E0369527958A95E1F7220F331FE8
:100DA000220F331FFB01E20FF31F40E050E080E011
:100DB000219130E0092E02C0369527950A94E2F77A
:100DC00021703327042E01C0220F0A94EAF7822BE8
:100DD0004F5F5F4F4430510559F70895282F862FF4
:100DE000953060F4243050F434E0939FB001112426
:100DF000620F711D42E951E00E9499060895282F63
:100E0000953068F4843058F434E0939FC001112485
:100E100062E971E0820F911D0E94C606089580E08C
:100E20000895A0E0B0E0E7E1F7E00C94721D8C01BA
:100E3000E0909E01F0909F018091A0019091A1010E
:100E4000E82AF92ACFE0D0E0CC24C394D12CC60103
:100E50000C2E02C0880F991F0A94E2F78E219F2161
:100E6000892B49F4219798F7B12C8B2DCDB7DEB79C
:100E7000E9E00C948E1DBC2EB8018C2F0E94CB0D86
:100E8000019781F3F2CFCF93DF93D82FC92F0E9420
:100E900011076D2F7C2F0E94CB0DDF91CF9108950C
:100EA0001F93CF93DF93162FD72F90919101992302
:100EB00041F0862F972F0E944307DF91CF911F911A
:100EC0000895882381F0862F972F0E941107C82F3D
:100ED000682F812F9D2F0E94EE06612F7D2F8C2F72
:100EE0000E94CB0DEACF862F972F0E94FF06C82FB6
:100EF000F4CF0F931F93CF93E091A201C7E08091AD
:100F0000A3018E1304C0CF911F910F9108950E2F4E
:100F100010E0CE9FF0011124EC55FE4F208131816D
:100F2000428153816481758186810E94F905F801AF
:100F30003196E770E4CF2091DC013091DD014091E2
:100F4000DE015091DF016091E0017091E10180913B
:100F5000E2010E94F90508958091E201803178F460
:100F60008091E101882359F0E091A2012091A30131
:100F70003091DD014091DC0157E02E1301C008954E
:100F80006E2F70E05E9FF0011124DF01AC55BE4F63
:100F900014968C911497882361F111968C91119776
:100FA000831327C08C91841324C015968C911597B8
:100FB00081111FC012968D919C91A091DE01B0917C
:100FC000DF018A1B9B0B883C910598F48091E2011C
:100FD0008F7080618093E201E655FE4F80818F70B3
:100FE000806180838CED91E00E9487050E947907E3
:100FF0000895FB013196E770C0CFE091A201909176
:10100000A30127E0E91302C080E00895AE2FB0E00D
:101010002E9FF0011124EC55FE4F3181361306C08E
:101020003081381303C03581341304C0FD0131967B
:10103000E770E8CF81E008958F929F92AF92BF92C0
:10104000DF92EF92FF920F931F93CF93DF93CDB771
:10105000DEB72D970FB6F894DEBF0FBECDBF8C0163
:1010600086E0F801DE01189601900D928A95E1F76D
:10107000F801E080F580A280B38084819CED892E08
:1010800091E0992E9091E00191111BC0882309F401
:10109000FCC0FF2009F43DC1C8010E94E20588237D
:1010A00009F437C187E0F801D40101900D928A95C7
:1010B000E1F7C4010E94B1020E94AC070E949B07A5
:1010C000E4C0D090E1012091DE013091DF01A50163
:1010D000421B530BDD2009F4DBC0483C510508F0EE
:1010E000A6C0882309F4D1C09091DD019180809140
:1010F000E201803108F06BC0991228C09091DC01A8
:101100009E1124C0F1105DC08F7080618093E20158
:101110000E949B078CED91E00E9487058091E2017F
:10112000F8018683F12C8F2D2D960FB6F894DEBF33
:101130000FBECDBFDF91CF911F910F91FF90EF9028
:10114000DF90BF90AF909F908F900895F11039C0BD
:1011500040E0692D8E2D0E94FD0740E0692D8E2D07
:101160000E94FD07F82E8111DDCF888599850E94A8
:101170004307292F22952F70903450F49F7022300E
:1011800080F0992399F0F8019681903178F4CBCFD3
:101190002A5F2F70223078F0C8010E948705FD2C4D
:1011A000C2CF992319F0882309F4BDCF805E88301F
:1011B00008F4B9CFF1CF803F08F4B5CF815F82301A
:1011C000F7CF8091E20181608093E201ABCF991269
:1011D00007C09091DC019E1103C0FF2009F479C083
:1011E000C8010E94E205882309F493C0FF2009F496
:1011F00090C08091E201803288F02091DC01309132
:10120000DD013A832983BC82AB829091E0019D830A
:101210001E828F83CE0101960E94870587E0F80128
:10122000ACEDB1E001900D928A95E1F745CF909138
:10123000E2019031A0F4488559856A857B858C85CB
:101240009D850E94EF058CED91E00E94870587E067
:10125000F40111928A95E9F70E949B0763CF8823D6
:10126000A1F02091DD0181812813BACF8091DC01AA
:101270008E11B6CFF110B4CF9683C8010E948705B6
:1012800087E0F40111928A95E9F7FF24F3944BCF9C
:10129000483C510508F041C08823B9F3FF20C9F14B
:1012A0009091DD01818198132AC08091DC018E111B
:1012B00026C08091E20180FD19C08031B8F086839C
:1012C000807F803F39F08681982F907F905F8F706C
:1012D000892B8683C8010E94870587E0F801ACED61
:1012E000B1E001900D928A95E1F7E8CE87E0F80130
:1012F000ACEDB1E001900D928A95E1F7C6CFC8013F
:101300000E94E20581118ACF8091E2018160809381
:10131000E201C8010E948705B8CF488559856A85D2
:101320007B858C859D850E94EF0591CFAEE0B0E076
:10133000ECE9F9E00C94781D288739874A875B87A8
:101340006C877D878E87CE0108960E941C088823B3
:10135000B1F06C85662341F0288539854A855B8527
:101360007D858E850E94F90517E08091A2019091FC
:10137000A30189133EC02E96E3E00C94941D87E0F0
:10138000FE013896DE01119601900D928A95E1F7E3
:101390002091A3014091A2018C85882329F330E09C
:1013A000C90101968770992750E08417950799F035
:1013B00097E0929FD001939FB00D1124AC55BE4F82
:1013C000FE01319601900D929A95E1F78093A30169
:1013D0000E947907C9CF0E94C0051092A301109204
:1013E000A20187E0ECEDF1E0DF011D928A95E9F7BB
:1013F000BBCF189FC00111248C559E4F0E941C0822
:10140000882309F4B8CFE091A2011E9FF0011124B6
:10141000EC55FE4F20813181428153816481758179
:1014200086810E94F9058091A20190E00196877063
:1014300099278093A20199CF8091EB01869586959B
:10144000869508958091EB01877008959091EB0146
:10145000977081E0911101C080E008958091F701BB
:1014600008959091F701982B9093F7010895982F84
:1014700090958091F70189238093F7010895109248
:10148000F70108959091F601982B9093F601089535
:10149000982F90958091F60189238093F601089505
:1014A0001092F601089508950E94530A08959091AC
:1014B000EC01292F2823222331F080958923809362
:1014C000EC010E94540A089508950E94640A089548
:1014D0009091ED01292F2823281729F0982B90931C
:1014E000ED010E94650A08959091ED01292F2823AE
:1014F000222331F0809589238093ED010E94650AB3
:1015000008958091ED01882329F01092ED0180E08B
:101510000E94650A08950F931F93CF93DF93009164
:10152000000110910101C091F7018091F601C82BD3
:10153000D091ED01DD2331F00E94071581110E9449
:10154000810ACD2BF801C083C0910001D091010127
:1015500048E050E063EE71E0CE010E94B41D892B9B
:1015600059F088E0FE01A3EEB1E001900D928A955A
:10157000E1F7CE010E94A114DF91CF911F910F914D
:1015800008950E948B0A089508950E94C40A089540
:1015900090912F0292FF11C098E0899F9001112431
:1015A000622B6093EB010E944B068091EB018695C4
:1015B000869586950E94C50A08950E944B06089557
:1015C0001092EB0180E00E94C50A08959091EB0112
:1015D000809589238093EB01282F277021110DC05E
:1015E000891759F090912F0292FF07C08695869532
:1015F00086950E945B060E94E00A089590912F0252
:1016000092FB222720F9281769F080FB92F990932A
:101610002F0280912E0290912F020E94460B82E0B1
:101620000E94E60A089580912F0282FB882780F9A4
:1016300091E089270E94FE0A089581E00E94FE0A37
:10164000089580E00E94FE0A08956FEF7FEF80E02A
:1016500090E00E94061E089580E090E00E94D21D56
:101660009C0181E0263E3E4F09F080E0089582E033
:1016700090E00E94CA1D089583E090E00E94CA1D78
:10168000089584E090E00E94D21D0895BC0184E09A
:1016900090E00E94061E0895AB01BC018FE090E02F
:1016A0000E94FA1D0895AB01BC0183E190E00E9405
:1016B000FA1D089560E070E0CB010E94530B08957D
:1016C00060E070E0CB010E944C0B0E945A0B089521
:1016D000A8E0B0E0EEE6FBE00C94791D66EE7EEF4C
:1016E00080E090E00E94061E60E082E090E00E94B0
:1016F000E81D81E090E09093A1018093A00161E05A
:1017000083E090E00E94E81D60E074E184E090E0F6
:101710000E94061E60E086E090E00E94E81D6FEFE8
:1017200087E090E00E94E81D40E050E0BA0188E0C8
:1017300090E00E94FA1D60E084E290E00E94E81DC3
:1017400060E087E190E00E94E81D60E08CE090E0BE
:101750000E94E81D60E08DE090E00E94E81D198283
:101760001A821B821C821D821E821F82188648E0FC
:1017700050E068E170E0CE0101960E94D81D40E083
:1017800050E0BA0180E290E00E94FA1D0E94600BD6
:101790002896E2E00C94951D0E94680B0895682F2E
:1017A0008EE090E00E94E81D0895A6E0B0E0EBED29
:1017B000FBE00C94771D0E9441168C018091F8018A
:1017C0009091F9018017910779F019821A820E948D
:1017D0004116BC0149815A8180E090E00E9481025B
:1017E0001093F9010093F8012696E4E00C94931D00
:1017F0000E944D16609303027093040280930502C9
:10180000909306026093FF0170930002809301029F
:10181000909302020895089508950E940B0C089574
:1018200008950E94100C089583EC9EE00E943D10E4
:101830000E940C0C0E940D0C089581E008950E94F6
:101840001D0C08950E941D0C0895089508950E948E
:10185000250C0E94260C08950E94C60E0E94550277
:1018600008950E9438160E948E0F0E942C0C0E9430
:10187000110C0895A6E0B0E0E0E4FCE00C94701DCB
:101880000E941F0C81110AC00E94D50B0E94EF120A
:101890000E9468022696EBE00C948C1D0E94A40F17
:1018A0008AEFA82E81E0B82E750110E0F7010191B2
:1018B0007F01812F0E94EC0E1F5F153009F443C099
:1018C0000817A1F38091070281FD0E94F20E0E9489
:1018D000220CC82E00E099249394802F0E94EC0ED5
:1018E000182FF50191915F01891739F1D82ED9266A
:1018F000F12CEE24E3948D2D8E218823B1F0CC20A1
:10190000A1F0F9820A830E9441169C838B839D82F9
:1019100091E0812F8E21811101C090E049815A818F
:101920006B817C818D810E948102F394EE0CF4E046
:10193000FF12E1CFF501319710830F5F053069F693
:101940000E94F80BA3CF0813BDCF9ECF1F93CF9358
:10195000DF930E94D00DEC01811522E5920708F07B
:1019600053C0811540E5940708F0DDC0803E910525
:10197000F8F48D3C910508F0AEC0883A910580F4EA
:10198000853A910508F099C08130910521F00497BE
:10199000813A910550F4CE01DF91CF911F910895C6
:1019A000885A91094B9708F48BC0C0E0D0E0F3CF80
:1019B000811550E49507F8F4C11580E2D80708F0C6
:1019C000CBC0C83ED10538F3CE019A9581159F4111
:1019D00060F78D2F0E94740E182FCE0199270E9458
:1019E000D00D212F30E0322F2227E901CC27DF71E3
:1019F000C82BD92BD0CF99270E94D00DCC27DF70D0
:101A0000C82BD92BD06AC7CF803842E59407C8F5D8
:101A1000803652E5950708F067C0C03482E5D807E4
:101A2000B0F08C2F86958695877020E2829FC0014A
:101A30001124C37021E030E0A90102C0440F551FFA
:101A4000CA95E2F7EA01C82BD92BDC68A4CFC032D3
:101A500052E5D50708F041C08C2F8695869520E287
:101A6000829FC0011124C37021E030E0A90102C0AF
:101A7000440F551FCA95E2F7EA01C82BD92BDD6840
:101A80008ACF803C52E5950760F48F71C03AD24509
:101A900008F03FC090E0982F8827EC01C46FD06A0F
:101AA0007ACF805C9245809708F07FCFDC2FCC27DF
:101AB000CC27DF71C06FD06A6ECFA497D0646BCF94
:101AC000C85AD0E0CC0FDD1FC55BDE4F0990D8812E
:101AD000C02DD46460CFD0655ECFCF71D0E0DC2F55
:101AE000CC27C16FD06A57CF86958695877020E244
:101AF000829FC0011124C37021E030E0A90102C01F
:101B0000440F551FCA95E2F7EA01C82BD92BDA68B2
:101B100042CF0E94740EC82FD0E0DC2FCC27CC27F8
:101B2000DF71D06238CF8F710E94740E65E0D69558
:101B3000C7956A95E1F7CF70D0E0DC2FCC27282F2E
:101B400030E084FF05C054E0220F331F5A95E1F7BF
:101B5000C22BD32BD0691FCF8D2F8F710E94740E93
:101B6000182FCE0199270E94D00D212F30E0322F5F
:101B7000222722273F71282B392BE901D2CF462F6C
:101B8000672F753028F4443018F40E9457010895E7
:101B900080E090E008950E94BF0D0E94A60C089579
:101BA000803E9105D1F1C8F48133910509F47FC0DD
:101BB00048F48932910509F46FC08A32910509F41D
:101BC0007DC0089589339105E1F082389105C9F00F
:101BD0008533910509F45BC00895843E9105D1F1E8
:101BE00048F4823E910531F1833E910541F181EE49
:101BF00090E00895863E9105C1F1873E9105E1F19F
:101C0000089520912E022370211165C020912F028A
:101C100023FF14C089E290E0089520912E0220FD58
:101C200043C030912F0230FF09C024FF4EC080E036
:101C300090E0089520912E0222FDF7CF0895209183
:101C40002E0222FD45C030912F0230FD44C024FFFA
:101C5000F5CFEDCF20912F0221FFF0CF80912E0202
:101C600084FDE5CF87EE90E0089520912E0223FFBA
:101C7000E5CF24FDDCCFF6CF20912E0223FD2EC030
:101C800030912F0231FFE3CF84EE90E00895209150
:101C90002E0225FFD3CFBECF20912E0225FD21C0DD
:101CA00020912F0223FFCACF89E390E0089520916D
:101CB0002E0226FFC3CF8AE290E0089520912E02E3
:101CC00026FFBCCF81E390E0089583EE90E0089575
:101CD00082EE90E0089580EE90E0089586EE90E028
:101CE000089585E390E0AACF90912E0292FF10C054
:101CF00041E0282F2471243009F040E031E0282F02
:101D00002871283009F030E0431711F02CE08227C9
:101D100093FF10C041E0282F2471243109F040E0E6
:101D200031E0282F2871283109F030E0431711F0F5
:101D30002CE0822730912F0230FF10C051E0282F75
:101D40002171213009F050E041E0282F287128301E
:101D500009F040E0541711F029E0822731FF10C04C
:101D600041E0282F2171213109F040E031E0282F96
:101D70002871283109F030E0431711F029E082275B
:101D800094FD877E089580E0089508950E942C0BAD
:101D9000811102C00E94CC0B0E94370B8093070276
:101DA0000E94410B90932F0280932E020E94C50E39
:101DB0000E943C0B90E00E940F0680919E01909142
:101DC0009F010E943006089508950E94E40E089530
:101DD00008950E94E80E0895E82FF0E0EB5CFD4FB7
:101DE00080810895089580EA8A95F1F7089500C0EA
:101DF00008950E94F30E0895F894E82FE295EF708D
:101E0000F0E041A18F7021E030E0B90102C0660F1F
:101E1000771F8A95E2F7CB01962F9095942391A393
:101E200092A1892B82A378940895CF93DF93C5E87C
:101E3000D1E089918F3F11F00E94FC0E81E0CA38F9
:101E4000D807B9F784E90E94FC0E86E90E94FC0ECF
:101E500087E90E94FC0E84E30E94FC0EDF91CF9183
:101E60000895A0E0B0E0E7E3FFE00C94731DEC01FF
:101E7000D62E062F10E0C8018B579E4F7C01FC0127
:101E800080818F3F09F445C0F894E82FE295EF7008
:101E9000F0E091A18F7021E030E001C0220F8A951F
:101EA000EAF7892F822B81A382A12095282322A3E0
:101EB00078940E94F70EE1E8F1E091E0C12C819165
:101EC0008F3F81F0A82FA295AF70A05EB0E02C915B
:101ED00030E08F7002C0359527958A95E2F7217022
:101EE000892F211180E0C82A990F81E0E538F80791
:101EF00031F7F70180818F3F11F00E94FC0E61E005
:101F0000C11001C060E08D2D0E94F90EC00FD11FDD
:101F1000C882CDB7DEB7E8E00C948F1D0E94150F84
:101F200085E0E5E3F2E0DF01982F1D929A95E9F74D
:101F3000E0E3F2E0DF011D928A95E9F785E00E9477
:101F4000E20F0E94E50E0895A5E0B0E0EAEAFFE0A6
:101F50000C94761D1A821982FE01339683E0DF010C
:101F60001D928A95E9F7F12C8E010F5F1F4F6F2D9F
:101F7000C8010E94310FF394B5E0FB12F8CF45E0A1
:101F800050E0B80180E392E00E94B41D21E0892B6B
:101F900081F420E045E065E372E080E392E00E9496
:101FA000E30F182F0E94E90E812F2596E5E00C948F
:101FB000921D85E0F801A0E3B2E001900D928A95B0
:101FC000E1F7E8CF0895A0E0B0E0E9EEFFE00C947F
:101FD000731DD82EE92EF62ED72F042FC22F2223C1
:101FE00079F081E080930A020E94411690930902E1
:101FF0008093080280E0CDB7DEB7E8E00C948F1D37
:10200000C0900A02CC20B1F380910802909109029D
:102010000E946A16059770F310E0A8016D2D7E2DC1
:102020008F2D9D2F0E94B41D892B41F0A8016D2D8D
:102030007E2D8F2D9D2F0E94C11DCC2D10920A0246
:102040008C2FD9CF0E9429180E94310C0E9436187B
:1020500008950E943B180E943A0C0E94551808955A
:102060000E94DA150E940F180E94140C0E94221080
:102070000E9429100E94270CFBCF90938B01809324
:102080008A010895CF93DF93EB0186319C4719F5C0
:102090000E942E0A9D819923A1F08A7A91E08111F4
:1020A00001C090E090930B02882349F085E30E94E1
:1020B00058150E94C10A80E0DF91CF91089589E20E
:1020C000F6CF80910B02882321F085E30E946015F2
:1020D000F0CF89E2FBCF81E0EFCFCF93DF93EC012C
:1020E000FB018581882309F4D2C09E013057233239
:1020F000310508F0B2C00E94410B90932F028093EB
:102100002E02FE01E150F047E232F10520F4E65DD7
:10211000F14E0C94631D80912E02816080932E02FB
:1021200093C080912F02886080932F028DC0809190
:102130002E028260F3CF80912E028460EFCF8091D7
:102140002E028860EBCF80912F028160EDCF8091CD
:102150002F028260E9CF80912E028061DFCF8091D3
:102160002E028062DBCF80912E028064D7CF0E9446
:10217000C00580912E028068D1CF80912E028C60A4
:10218000CDCF80912F028360CFCF80912E028E7FA2
:10219000C5CF80912F02877FC7CF80912E028D7F80
:1021A000BDCF80912E028B7FB9CF80912E02877F89
:1021B000B5CF80912F028E7FB7CF80912F028D7F78
:1021C000B3CF80912E028F7EA9CF80912E028F7D7A
:1021D000A5CF80912E028F7BA1CF0E94C005809158
:1021E0002E028F779BCF80912E02837F97CF809195
:1021F0002F028C7F99CF80912E0282FB992790F934
:1022000021E0922790FB82F990FB83F987CF8091A0
:102210002F02982F909591708E7F892B90FB81F9DA
:1022200083CF90912E02892F8F7B96FF806476CF8B
:102230000E94C00590912E02892F97FB87F9805844
:102240006DCF81E00E94CF0B80912E0290912F02E2
:102250000E94460B0E94C00580E0DF91CF91089557
:1022600080E0F0CF90912E02892F8F7E94FF8061C5
:1022700055CF90912E02892F8E7F90FF81604ECF97
:1022800090912F02892F877F93FF88604DCF81E047
:10229000E4CF282F35EB2303C001112497FF04C09E
:1022A00080589109892F089580589F4FFBCF8091C6
:1022B000120280FF0DC06091070170E0660F771F6A
:1022C00060387105C0F561157105B9F1862F089563
:1022D00081FF07C06091070184E0689FB00111246D
:1022E000EFCF82FF04C06091070188E0F6CF8091B4
:1022F00011028823E9F0909106016091070170E0D6
:10230000891730F093E0660F771F9A95E1F7D8CFE1
:10231000869F9001879F300D112483E0220F331F89
:102320008A95E1F7692F70E0C9010E944F1DC8CF5F
:1023300068E070E0CBCF8FE7089581E00895809149
:10234000120280FF0CC06091030170E075956795E3
:10235000759567956115710561F1862F089581FF67
:1023600006C06091030170E075956795F3CF6091A9
:10237000030170E082FD15C0209110022223B1F00C
:10238000909102016091030170E0291750F4269F9B
:10239000A001279F500D1124692F70E0CA010E94EF
:1023A0004F1D60387105B0F28FE7089561E070E06D
:1023B000D4CF81E008959091150220911602922BBE
:1023C00020911802922B20911702922B992331F021
:1023D00098E09093110291E0909310028D3C31F4BB
:1023E0000E9457118195809316020895E2E3E80F49
:1023F000E231B0F5F0E0E45BF14E0C94631D0E9415
:102400005711F1CF0E9457118195809315020895BD
:102410000E945711FACF0E949F11809317020895CE
:102420000E949F118195F9CF0E949F118195809301
:10243000180208950E949F11FACF815D990B21E047
:1024400030E001C0220F8A95EAF780911402822BB6
:102450008093140208958091120281608093120289
:102460000895809112028260F9CF809112028460F7
:10247000F5CF409115028D3C59F48091160287FFEB
:102480000DC010921602442359F41092110208C094
:102490008E3C81F48091160218169CF3442381F03F
:1024A0008091170290911802892B811159C01092C6
:1024B000100208958F3C41F447FFF0CF10921502AF
:1024C000809116028823E0CF803D19F41416B4F3EE
:1024D000E5CF90911702893D29F41916FCF6109268
:1024E0001702DCCF8A3D19F497FFD8CFF8CF90912F
:1024F00018028B3D29F497FFD1CF10921802CECF4E
:102500008C3D19F41916CCF3C9CF9FE2980F98307F
:1025100090F4815D990B21E030E0B90102C0660FB3
:10252000771F8A95E2F7CB01809590911402892359
:1025300080931402B3CF8D3D31F4809112028E7FCF
:1025400080931202ABCF8E3D21F4809112028D7FD9
:10255000F7CF8F3D09F0A2CF809112028B7FF0CF91
:1025600008950E9441162091150230911602232BE6
:10257000222321F080930E0290930F0220911702E4
:1025800030911802232B222321F080930C02909388
:102590000D0283E192E00E94AC14089586E0E3E12D
:1025A000F2E0DF011D928A95E9F710921102109274
:1025B0001002109212020895FC01828181110DC057
:1025C000838181110AC08481811107C081E09581D6
:1025D000911101C080E08170089581E0FCCFA6E0F8
:1025E000B0E0E5EFF2E10C94761D86E0E3E1F2E085
:1025F0009E012F5F3F4FD90101900D928A95E1F71F
:1026000010921502109216021092170210921802E0
:102610008B819C81892B8901882391F080910E0206
:1026200090910F020E946A169C01809111028823EA
:10263000C9F14091080150E04217530708F43FC028
:102640008D819E81892B882399F080910C02909135
:102650000D020E946A169C0180911002882309F4E1
:1026600067C04091040150E04217530708F46EC060
:10267000B80183E192E00E947315811105C083E1E6
:1026800092E00E94DC1281110E94B11286E0F801F2
:10269000A3E1B2E001900D928A95E1F72696E5E07C
:1026A0000C94921D409109019AE0499FA0011124C8
:1026B0004217530728F68F5F8093110202C08F3FA5
:1026C000D1F7FB80FF2059F00E94571191E01F14B1
:1026D0000CF09FEF899F802D112480931502FC80C0
:1026E000FF2059F00E94571191E01F140CF09FEF4A
:1026F000899F802D112480931602809115028823D2
:1027000009F49ECFF0901602FF2009F499CF0E94A1
:102710004911811101C081E0809315028F2D0E9423
:102720004911882319F0809316028ACF81E0FBCFEC
:10273000409105019AE0499FA001112442175307D7
:1027400008F096CF8F5F8093100202C08F3FD1F7C1
:10275000FD80FF2059F00E949F1191E01F140CF0A2
:102760009FEF899F802D112480931702FE80FF2008
:1027700059F00E949F1191E01F140CF09FEF899F68
:10278000802D11248093180280911702882309F468
:102790006FCFF0901802FF2009F46ACF0E94491110
:1027A000811101C081E0809317028F2D0E94491191
:1027B000882319F0809318025BCF81E0FBCF0F9341
:1027C0001F93CF93DF93C42FD22FFC0185818823E1
:1027D000C9F040931B020E94411690931A02809305
:1027E000190280E28C0F883040F4C77081E001C08C
:1027F000880FCA95EAF70E946003DF91CF911F917D
:102800000F91089510911B0214133CC0809119027E
:1028100090911A020E946A16883C910598F5C0E2D0
:10282000CD0F1D1741F180E2810F883040F4177001
:1028300081E001C0880F1A95EAF70E946703C8304B
:1028400020F0802F0E945703D8CF91E08D2F877002
:1028500001C0990F8A95EAF7892F0E946003802FA3
:102860000E945703D77081E001C0880FDA95EAF71C
:102870000E946703C2CF802F0E945703C83008F020
:10288000BCCFF0CF80E28C0F883008F0B6CFC77095
:1028900081E001C0880FCA95EAF7EACF0F93FC01E7
:1028A000CB01E851FC47E730F10590F5E25AF14ED3
:1028B0000C94631D06E221EE41EE6AE17CE70E9482
:1028C000DF1380E00F91089507E225EE45EE6BE1FE
:1028D0007CE7F5CF06E221EE40EE68E17CE7EFCF42
:1028E00007E225EE44EE69E17CE7E9CF06E221EE5E
:1028F00042EE6CE17CE7E3CF07E225EE46EE6DE1C8
:102900007CE7DDCF08E221E045EE6EE17CE7D7CF42
:10291000FB018581811110921B0281E0D3CF90933E
:102920002102809320020895E0912002F09121027B
:10293000309729F00190F081E02D0995089580E00D
:102940000895E0912002F0912102309721F0028059
:10295000F381E02D09950895DC01E0912002F091CA
:102960002102309739F082E08C930680F781E02DC8
:10297000CD0109950895A3E0B0E0E1ECF4E10C94F9
:10298000791D9C0180911E0290911F02821793076E
:10299000A1F030931F0220931E02E0912002F091DB
:1029A0002102309751F083E089833B832A8300849E
:1029B000F185E02DCE01019609952396E2E00C9475
:1029C000951DA3E0B0E0E7EEF4E10C94791D9C01C5
:1029D00080911C0290911D0282179307A1F0309301
:1029E0001D0220931C02E0912002F09121023097F9
:1029F00051F084E089833B832A830084F185E02DB4
:102A0000CE01019609952396E2E00C94951D409124
:102A10000001509101019A012E5F3F4F485F5F4FC7
:102A200080E0F90190812F5F3F4F91118F5F421736
:102A30005307B9F70895882371F020910001309170
:102A40000101F9013296285F3F4F9191981729F0C3
:102A5000E217F307D1F780E0089581E008959C0123
:102A6000FC0132968FEF90E04191461751F08F3F75
:102A700019F4411101C0892F9F5F9630A9F78F3F4C
:102A800009F40895280F311D87FD3A95F9016283F5
:102A900008959C01FC013296285F3F4F8191861377
:102AA00003C0DF0111971C92E217F307B9F70895ED
:102AB000682F80910001909101010E942F150895C7
:102AC000682F80910001909101010E94491508959D
:102AD000E0910001F0910101329686E0DF011D9244
:102AE0008A95E9F70895DC01FB0111969C911197F5
:102AF0008181981322C012968C911297882319F025
:102B0000928189131AC013968C911397882319F018
:102B10009381891312C015968C911597882319F00B
:102B2000958189130AC014969C91992321F081E024
:102B30002481291303C080E001C081E081700895E1
:102B400008950E94A01508958F5F809322020E942D
:102B5000A115089583E0809322020E94A115089593
:102B60000E94A415089581E0809322020E94A1157D
:102B700008950E94B3150895089508950E94BD1503
:102B80000895089508950E94BC150895CF930E945A
:102B9000C1150E94A40F0E94C215C0E08C2F0E9494
:102BA000EC0E811105C0CF5FC530C1F7CF910895FC
:102BB00081E0FCCF85B7806885BF85B7806885BF19
:102BC00008951F921FB61F9211248F939F93AF9366
:102BD000BF9380912302811113C080913A0290919A
:102BE0003B02A0913C02B0913D024196A11DB11D56
:102BF00080933A0290933B02A0933C02B0933D0233
:102C0000BF91AF919F918F911F901FBE1F901895FC
:102C100080914202843031F10E94380210922302E6
:102C200088E190E020E40FB6F894A89580936000C6
:102C30000FBE2093600083B7817F846083BF83B71A
:102C4000816083BF7894889583B78E7F83BF0FB6EA
:102C5000F894A8958091600088618093600010923C
:102C600060000FBE08950E94C0050E943D020895B5
:102C700082E084BD93E095BD9AEF97BD80936E008E
:102C800008952FB7F89480913A0290913B02A09159
:102C90003C02B0913D022FBF0895A4E0B0E0E3E50F
:102CA000F6E10C94791D8FB7F89420913A02309197
:102CB0003B0240913C0250913D0229833A834B8371
:102CC0005C838FBF69817A818B819C812496E2E04D
:102CD0000C94951D9C014FB7F89480913A02909105
:102CE0003B02A0913C02B0913D024FBF821B930B6F
:102CF000089578941F921FB61F9211248F939F936B
:102D0000AF93BF9380913A0290913B02A0913C0215
:102D1000B0913D020196A11DB11D80933A0290939E
:102D20003B02A0933C02B0933D02BF91AF919F91B3
:102D30008F911F901FBE1F90189581E08093E00037
:102D400080E28093D8001092C9008FE19EE4019741
:102D5000F1F700C0000087E090EBDC0180934B02AC
:102D600090934C02A0934D02B0934E0288E19CE0F8
:102D70000FB6F894A895809360000FBE9093600002
:102D8000FFCF88E19CE00FB6F894A895809360008F
:102D90000FBE90936000FFCF80912C02089508959C
:102DA000282FCB01BA01309142023430E1F42F7068
:102DB0002093E9002FEF3091E80035FD07C035ED95
:102DC0003A95F1F7000021502111F5CF2091E8004C
:102DD00025FF09C040E050E00E94CD188091E80036
:102DE0008E778093E8000895BC0143E050E082E0D4
:102DF0000E94D0160895BC0146E050E082E00E9497
:102E0000D0160895CF93DF93D82FC92F48E050E014
:102E1000682F792F81E00E94D01688E0ED2FFC2FDB
:102E2000A4E2B2E001900D928A95E1F7DF91CF9193
:102E3000089580914102811109C00E94551A0E9493
:102E4000B21A8091E20084608093E20008951092AB
:102E5000410208950E94B315089560913E0281E0F9
:102E6000611101C080E00E94AA150895909142026C
:102E700081E0943009F080E060913E020E94B0153C
:102E8000089542E061EC81E00E94D11942E261ECD8
:102E900082E00E94D1199091420281E0943009F0C1
:102EA00080E060913E020E94A41508958091440242
:102EB000893089F148F4823009F4A0C0833009F4E4
:102EC0005AC0813041F008958A3009F487C08B30B0
:102ED00009F46CC0089580914302813A09F04AC018
:102EE0008091E800877F8093E8008091470290916D
:102EF0004802892B61F060E080E090E070E00E9481
:102F00001C198091E8008B778093E800089568E0B1
:102F100084E292E0F3CF80914302813259F58091AF
:102F2000470290914802029728F58091E800877F38
:102F30008093E8008091E80082FF18C09091F30030
:102F40008091F200029731F48091F100813011F00C
:102F5000863021F48091F10080932C028091E8006A
:102F60008B778093E8000E94051A04C0809142028A
:102F70008111E0CF089580914302813AD9F7809181
:102F8000470290914802892BA9F78091E800877F3A
:102F90008093E8008091E80080FFFCCF80911401CD
:102FA0008093F1008091E8008E77DBCF809143021F
:102FB000813201F78091470290914802892BD1F626
:102FC0008091E800877F8093E8000E94051A809135
:102FD0004502809314010E94C00508958091430228
:102FE000813241F68091E800877F8093E8000E945B
:102FF000051A8091460280932D0208958091430224
:10300000813A09F0B7CF8091E800877F8093E8008C
:103010008091E80080FFFCCF80912D02C1CF84B762
:10302000877F84BF0FB6F894A8958091600088616F
:1030300080936000109260000FBE80E890E00FB6B1
:10304000F89480936100909361000FBE0E94B915BF
:1030500008950E94551A0E94B21AE2EEF0E08081B3
:103060008460808378940E94351D08958AE091E001
:103070000E948F14089580914202853031F480912E
:103080004202853019F00E94331608950E940816F6
:1030900080914002882399F30E94C615882379F312
:1030A0000E94B7180E94C005EACF08959A01409186
:1030B000490250914A020E945E180895AC01CB016A
:1030C000D901252F332723303105E1F058F4213081
:1030D0003105C9F122303105D9F180E090E020E0DE
:1030E00030E01EC02132310521F122323105A9F72D
:1030F000892BC1F16130710581F78BE790E02FE4F6
:1031000031E00EC0CA019927413069F08230910543
:1031100069F0EEEFF0E0892B01F7849190E09F01D8
:103120002D933C930895ECEEF0E0F7CFE4EDF0E062
:10313000F4CF892B91F06130710579F689E090E048
:103140002DE231E0EDCF82E190E02DE331E0E8CFF8
:103150008BE390E022E031E0E3CF89E090E024E1EE
:1031600031E0DECF84E490E02AEC31E0D9CF80E199
:1031700089BD82E189BD09B400FEFDCF8091D800F0
:103180008F7D8093D8008091E00082608093E00082
:103190008091E00081FDFCCF0895AF92BF92CF9265
:1031A000DF92FF920F931F93CF93DF936C01EB019C
:1031B0008A010E94241AF82E811123C001151105DD
:1031C00039F0F80180819181C81BD90BC80ED91E36
:1031D000A12CB12C2097A9F08091E80085FD22C098
:1031E0008091E8008E778093E80001151105A1F029
:1031F000F801808191818A0D9B1D9183808385E0F8
:10320000F82E8F2DDF91CF911F910F91FF90DF90BE
:10321000CF90BF90AF9008950E94241A8823E1F2C6
:10322000F82EEFCFF60181916F018093F100219785
:10323000FFEFAF1ABF0ACECFFC019B01809149027C
:1032400090914A028617970718F0672B61F0C90121
:1032500040E0009771F441110CC08091E80082FFBA
:1032600035C080E008958091E8008E778093E80073
:10327000EECF209142022223A9F12530A9F120911D
:10328000E80023FD2DC02091E80022FDE6CF20912B
:10329000E80020FFDECF3091F3002091F20000978C
:1032A00019F02830310558F041E02830310509F097
:1032B00040E02091E8002E772093E800CACF4191AA
:1032C0004093F10001972F5F3F4FE9CF8091420279
:1032D000882341F0853041F08091E80083FFBDCF25
:1032E00081E0089582E0089583E00895FC019B0148
:1032F0008091490290914A028617970718F0672B30
:1033000061F0C90140E0009771F441110CC0809157
:10331000E80082FF36C080E008958091E8008E7753
:103320008093E800EECF209142022223B1F12530B4
:10333000B1F12091E80023FD2EC02091E80022FD8C
:10334000E6CF2091E80020FFDECF3091F3002091FE
:10335000F200009719F02830310558F041E028308C
:10336000310509F040E02091E8002E772093E80035
:10337000CACF44914093F100319601972F5F3F4FA0
:10338000E8CF80914202882341F0853041F080915E
:10339000E80083FFBCCF81E0089582E0089583E0D8
:1033A0000895982F973028F08F708093E90081E07E
:1033B00008959093E900242F762F50E0981731F06C
:1033C0007091EC002091ED005091F00021FD02C0C1
:1033D0009F5FE8CF3091EB003E7F3093EB00309160
:1033E000ED003D7F3093ED003091EB003160309384
:1033F000EB007093EC002093ED005093F0002091CF
:10340000EE0027FDE5CF80E008958091430287FF1D
:1034100013C08091E80082FF06C08091E8008B779E
:103420008093E80004C0809142028111F2CF089598
:10343000809142028823D9F38091E80080FFF8CF81
:103440008091E8008E77ECCF2091E4003091E50088
:1034500095E6A9018091EC008170882331F080917C
:10346000E80080FF06C080E008952091E80022FD7A
:103470001BC080914202882391F0853091F08091A9
:10348000EB0085FD10C02091E4003091E50042176B
:10349000530701F391509111DCCF84E0089582E04D
:1034A000089583E0089581E008950E94C41A0E945F
:1034B000CC1AE0EEF0E0808181608083E8EDF0E0FE
:1034C00080818F77808319BCA7EDB0E08C918E7FCF
:1034D0008C9380818F7E80831092410208950F9398
:1034E0001F93CF93DF930E94C41A0E94CC1AC8ED99
:1034F000D0E088818F7788838881806888838881FD
:103500008F7D888319BC1092420210923E02109265
:10351000400210923F0200EE10E0F80180818B7FA4
:10352000808388818160888342E060E080E00E943F
:10353000D119E1EEF0E080818E7F8083E2EEF0E051
:10354000808181608083808188608083F8018081B0
:103550008E7F8083888180618883DF91CF911F91E6
:103560000F910895E8EDF0E080818F7E8083E7ED94
:10357000F0E080818160808384E082BF81E080937D
:1035800041020E946F1A0895E8EDF0E080818E7F7D
:1035900080831092E20008951092DA001092E10008
:1035A00008951F920F920FB60F9211242F933F93FD
:1035B0004F935F936F937F938F939F93AF93BF933B
:1035C000EF93FF938091E10082FF0BC08091E200B6
:1035D00082FF07C08091E1008B7F8093E1000E9411
:1035E000341D8091DA0080FF19C08091D80080FFDF
:1035F00015C08091DA008E7F8093DA008091D90027
:1036000080FF94C080E189BD82E189BD09B400FEDC
:10361000FDCF81E0809342020E9419178091E10062
:1036200080FF19C08091E20080FF15C08091E20008
:103630008E7F8093E2008091E20080618093E200BF
:103640008091D80080628093D80019BC85E0809377
:1036500042020E942D178091E10084FF29C08091D1
:10366000E20084FF25C080E189BD82E189BD09B403
:1036700000FEFDCF8091D8008F7D8093D80080918F
:10368000E1008F7E8093E1008091E2008F7E809345
:10369000E2008091E20081608093E20080913E022E
:1036A000882309F449C084E0809342020E943617BF
:1036B0008091E10083FF29C08091E20083FF25C053
:1036C0008091E100877F8093E10082E08093420255
:1036D00010923E028091E1008E7F8093E100809104
:1036E000E2008E7F8093E2008091E200806180930F
:1036F000E20042E060E080E00E94D1198091F00099
:1037000088608093F0000E942A17FF91EF91BF918B
:10371000AF919F918F917F916F915F914F913F9169
:103720002F910F900FBE0F901F90189519BC1092FB
:1037300042020E94271772CF8091E30087FF02C0E8
:1037400083E0B2CF81E0B0CF1F920F920FB60F92FD
:103750001124FF920F931F932F933F934F935F93E7
:103760006F937F938F939F93AF93BF93CF93DF9389
:10377000EF93FF9309EE10E0F8018081C091EC0017
:10378000C795CC27C7958F70FC2EF82A1082C0EF02
:10379000D0E08881877F888378940E94ED1BF801B0
:1037A0001082888188608883CF2DCF70C083FF917D
:1037B000EF91DF91CF91BF91AF919F918F917F91C9
:1037C0006F915F914F913F912F911F910F91FF90BA
:1037D0000F900FBE0F901F901895AAE2B0E0E3EF94
:1037E000FBE10C94781D83E492E0FC0101962091AA
:1037F000F100208322E08B349207B9F70E9456171C
:103800008091E80083FF38C0809143029091440288
:103810009A3090F5E92FF0E0EB59F14E0C94631DCE
:10382000803889F0823841F5809147028F70873067
:1038300018F58093E9008091EB0085FB882780F9DB
:103840001092E90006C080913F02909140029111D0
:1038500082609091E800977F9093E8008093F10058
:103860001092F1008091E8008E7723C0811116C07C
:1038700080914502813011F18091E80083FF0AC0F8
:103880008091E800877F8093E8008091EB00806260
:103890008093EB00AA96E3E00C94941D823061F7CC
:1038A00080914502882389F01092E9008091E80018
:1038B000877F8093E8000E94051ADECF81E0933075
:1038C00009F080E080934002EFCF809147028F7033
:1038D0002FEF280F263080F68093E9002091EB002F
:1038E00020FFE2CF933031F48091EB00806280932F
:1038F000EB00DACF9091EB0090619093EB0021E028
:1039000030E0A90102C0440F551F8A95E2F74093A9
:10391000EA001092EA008091EB008860E8CF811104
:10392000ABCF109145021F778091E3008078812B07
:103930008093E3008091E800877F8093E8000E94F5
:10394000051A8091E80080FFFCCF8091E300806839
:103950008093E30083E0111101C082E08093420272
:103960008BCF8058823008F087CF809145029091AC
:1039700046028C3D53E0950799F583E08A838AE2FD
:1039800089834FB7F894DE01139620E03EE051E2C0
:10399000E32FF0E050935700849120FF03C08295FD
:1039A0008F703F5F8F708A30C8F0895C90E08D9394
:1039B0009D932F5F243161F74FBF8091E800877F8F
:1039C0008093E8006AE270E0CE0101960E941C1923
:1039D0008091E8008B778093E8004ECF805DE6CF42
:1039E0006091470270914802AE014F5F5F4F0E94A5
:1039F0005618BC01892B09F43FCF8091E800877FDE
:103A00008093E80089819A810E947619E1CF8038FD
:103A100009F032CF8091E800877F8093E8008091A1
:103A20003E028093F1001ECF811126CF9091450276
:103A3000923008F021CF8091E800877F8093E800E2
:103A400090933E020E94051A80913E02882331F035
:103A500084E0809342020E9441170ECF8091E300E0
:103A600087FDF6CF81E0F5CF0895CF938091420294
:103A7000882399F08091E900C091EC00C795CC278C
:103A8000C7958F70C82B1092E9008091E80083FDE4
:103A90000E94ED1BCF70C093E900CF91089597FB72
:103AA000072E16F4009407D077FD09D00E94A01DC0
:103AB00007FC05D03EF4909581959F4F0895709531
:103AC00061957F4F0895EE0FFF1F0590F491E02D53
:103AD00009942F923F924F925F926F927F928F92B2
:103AE0009F92AF92BF92CF92DF92EF92FF920F938D
:103AF0001F93CF93DF93CDB7DEB7CA1BDB0B0FB697
:103B0000F894DEBF0FBECDBF09942A883988488853
:103B10005F846E847D848C849B84AA84B984C884E9
:103B2000DF80EE80FD800C811B81AA81B981CE0FE0
:103B3000D11D0FB6F894DEBF0FBECDBFED010895C5
:103B4000AA1BBB1B51E107C0AA1FBB1FA617B707C3
:103B500010F0A61BB70B881F991F5A95A9F78095DF
:103B60009095BC01CD010895FB01DC0104C08D914D
:103B70000190801921F441505040C8F7881B990BDF
:103B80000895FB01DC0102C001900D9241505040AC
:103B9000D8F70895F999FECF92BD81BDF89A99277B
:103BA00080B50895A8E1B0E042E050E00C940E1E0C
:103BB000DC01A40FB51F4150504048F0CB01840FE9
:103BC000951F2E910E94E91D41505040D0F7089555
:103BD000262FF999FECF92BD81BDF89A019700B4C6
:103BE000021639F01FBA20BD0FB6F894FA9AF99A66
:103BF0000FBE08950396272F0E94E91D0E94E81D1D
:103C0000252F0E94E91D242F0C94E91D0196272FD2
:103C10000E94E91D0C94E81DDC01CB01FC01F9991F
:103C2000FECF06C0F2BDE1BDF89A319600B40D9208
:103C300041505040B8F70895F894FFCFAC03AC035F
:103C4000F303F30358047504DB03DB037A04F10484
:103C500002050205C5103911CD1097109B10D11027
:103C60009F10D510E110AB103211AF10E510B3105A
:103C7000E9101111B710ED101811BD10F310FB1061
:103C8000A310D910A710DD10C110F71007112111D2
:103C900030119110C9104011FF11021208121D12AB
:103CA0001D121D121D121D121D121D121D120B12AE
:103CB000101214121A122B12311235126A147014C7
:103CC0005A14641476147C148214101C361C3C1C88
:0E3CD000361C3C1C8F1CB11C3C1C071D141D17
:103CDE00EE01280850011E0A1401CC160217CF1649
:103CEE00FB16F41601E200E900EA00B500B600B7D3
:103CFE0000CD008301CC008A0192019401210223A0
:103D0E000224022502260227022A02B300B4006F03
:103D1E000070009F01CB019F02A002E200E900EAC1
:103D2E0000B500B600B700CD008301CC008A019229
:103D3E000194012102230224022502260227022ACF
:103D4E0002B300B4006F0070009F01CB019F02A070
:0A3D5E0002949697343090919293EE
:00000001FF
